HDRAGSBVTYPREQ0000000220000342410020220322000000002                                                                                                                                                                                                                                                                                                                                                                                                                                                                 
01567018151915          6G362DELAWARE MUTUAL INS CO                                                          P O BOX 209                                                                     HERMAN                   MN56248    320677227400000199900048043436C2021040920220409318337266                     JERRY                                   CARRINGTON                              1656 FAGAN DR                                                                   FORT WORTH               TX76131S
07319710717134          72816FERGUS FARM MUTUAL                                                              224 W MAIN                              #503                                    LEWISTOWN                MT59457    406538925100000092300048043726C202104142022041436970786                      MICHAEL                                 ORTON                                   3635 S ATLAS WAY                                                                WEST VALLEY CITY         UT84120S
07319769177271          72816FERGUS FARM MUTUAL                                                              224 W MAIN                              #503                                    LEWISTOWN                MT59457    406538925100000229500048043728C202104142022041436956961                      VIRGINIA                                WARD                                    1083 NETHERWOOD RD                                                              HYDE PARK                NY12538S
07319714506186          72816FERGUS FARM MUTUAL                                                              224 W MAIN                              #503                                    LEWISTOWN                MT59457    406538925100000105800048043729C202104142022041436873386                      RYAN                                    WILSON                                  3191 HANCE RD                                                                   MACEDON                  NY14502S
07319782087135          72816FERGUS FARM MUTUAL                                                              224 W MAIN                              #503                                    LEWISTOWN                MT59457    406538925100000244200048043730C202104142022041434521419                      BENJAMIN                                TAYLOR                                  123 VICTORIA PL                                                                 SYRACUSE                 NY13210S
07319785711210          72816FERGUS FARM MUTUAL                                                              224 W MAIN                              #503                                    LEWISTOWN                MT59457    406538925100000221100048043731C202104142022041437924037                      MICHAEL                                 WALLACE                                 12417 STARLIGHT LN                                                              BOWIE                    MD20715S
07319789873081          72816FERGUS FARM MUTUAL                                                              224 W MAIN                              #503                                    LEWISTOWN                MT59457    406538925100000114800048043732C202104142022041437945625                      PAUL                                    NGUYEN                                  142 HARVEST ST                                                                  DALY CITY                CA94014S
07319703592395          72816FERGUS FARM MUTUAL                                                              224 W MAIN                              #503                                    LEWISTOWN                MT59457    406538925100000170300048043733C202104142022041434527734                      ALEKSANDRA                              PELCZYNSKA                              325 KELLY MILL RD                                                               CUMMING                  GA30040S
07319703596305          72816FERGUS FARM MUTUAL                                                              224 W MAIN                              #503                                    LEWISTOWN                MT59457    406538925100000223000048043734C202104142022041434568323                      KEVIN                                   CARPENTER                               17406 DOWELL CIR                                                                DALLAS                   TX75252S
07319716772232          72816FERGUS FARM MUTUAL                                                              224 W MAIN                              #503                                    LEWISTOWN                MT59457    406538925100000113700048043735C202104142022041437990772                      ERIC                                    HAMPTON                                 3422 COVENTRY DR                                                                WATERFORD                MI48329S
07319744846891          72816FERGUS FARM MUTUAL                                                              224 W MAIN                              #503                                    LEWISTOWN                MT59457    406538925100000239000048043736C202104142022041434563689                      RYAN                                    RUSHER                                  5107 W HICKORY LN                                                               ANDERSON                 IN46011S
07319753088823          72816FERGUS FARM MUTUAL                                                              224 W MAIN                              #503                                    LEWISTOWN                MT59457    406538925100000093800048043737C202104142022041437948853                      MATTHEW                                 BOZEK                                   1744 NW 60TH ST                                                                 SEATTLE                  WA98107S
07319754780139          72934AMERICAN STRATEGIC INS CORP                                                     PO BOX 33018                                                                    ST PETERSBURG            FL33733    866274876500000105100048043738C202104142022041434543342                      JORDAN                                  STOTT                                   510 LINKSHIRE DR                                                                ABERDEEN                 WA98520S
07319765917308          72934AMERICAN STRATEGIC INS CORP                                                     PO BOX 33018                                                                    ST PETERSBURG            FL33733    866274876500000223000048043740C202104142022041433800607                      RONALD                                  HENRY                                   78 S 16TH ST                                                                    EAST ORANGE              NJ07018S
07319768387277          72934AMERICAN STRATEGIC INS CORP                                                     PO BOX 33018                                                                    ST PETERSBURG            FL33733    866274876500000090900048043741C202104142022041433777777                      CALEB                                   WAGNER                                  55780 HWY 112                                                                   PORT ANGELES             WA98363S
07319768536576          72934AMERICAN STRATEGIC INS CORP                                                     PO BOX 33018                                                                    ST PETERSBURG            FL33733    866274876500000130700048043742C202104142022041436063712                      TIMOTHY                                 MATHEW                                  12817 CORBIN DR                                                                 STERLING HEIGHTS         MI48313S
07319774591003          72934AMERICAN STRATEGIC INS CORP                                                     PO BOX 33018                                                                    ST PETERSBURG            FL33733    866274876500000144000048043743C202104142022041436971019                      MARIA                                   IRLANDA                                 4623 SAN JACINTO RIVER DR                                                       SPRING                   TX77386S
07319776282874          72934AMERICAN STRATEGIC INS CORP                                                     PO BOX 33018                                                                    ST PETERSBURG            FL33733    866274876500000107200048043744C202104142022041434566783                      ROBERT                                  PIERCE                                  612 WINTON AVE                                                                  EVERETT                  WA98201S
07319785084030          72934AMERICAN STRATEGIC INS CORP                                                     PO BOX 33018                                                                    ST PETERSBURG            FL33733    866274876500000059300048043746C202104142022041436915527                      DANIEL                                  DIAZ                                    16880 SW CAMBRIDGE DR                                                           ALOHA                    OR97078S
07319790874987          72934AMERICAN STRATEGIC INS CORP                                                     PO BOX 33018                                                                    ST PETERSBURG            FL33733    866274876500000171300048043747C202104142022041434557324                      CRAIG                                   CATALANO                                2744 WELCOME DR                                                                 FALLS CHURCH             VA22046S
07319798657368          72934AMERICAN STRATEGIC INS CORP                                                     PO BOX 33018                                                                    ST PETERSBURG            FL33733    866274876500000258600048043749C202104142022041436905251                      NATHAN                                  BURNHAM                                 1712 ODANIEL LN                                                                 CONROE                   TX77301S
07319801742876          72934AMERICAN STRATEGIC INS CORP                                                     PO BOX 33018                                                                    ST PETERSBURG            FL33733    866274876500000086600048043750C202104142022041437980863                      LEONA                                   BORROWMAN                               11320 149TH AVE NW                                                              GIG HARBOR               WA98329S
